{
  "contractName": "APCToken",
  "abi": [
    {
      "inputs": [],
      "payable": false,
      "stateMutability": "nonpayable",
      "type": "constructor"
    },
    {
      "constant": true,
      "inputs": [],
      "name": "totalSupply",
      "outputs": [
        {
          "internalType": "uint256",
          "name": "",
          "type": "uint256"
        }
      ],
      "payable": false,
      "stateMutability": "view",
      "type": "function"
    }
  ],
  "bytecode": "0x6080604052348015600f57600080fd5b50620f42406000819055506084806100286000396000f3fe6080604052348015600f57600080fd5b506004361060285760003560e01c806318160ddd14602d575b600080fd5b60336049565b6040518082815260200191505060405180910390f35b6000548156fea265627a7a72315820ecabd04afea602c2d29c5e7879a12798b8eca4311cbcc7e077218fbc7028e32c64736f6c63430005100032",
  "source": "pragma solidity ^0.5.6;\n\ncontract APCToken {\n  // constructor\n  // set # of tokens\n  // read # of tokens\n\n  uint256 public totalSupply; // named from ERC20 std\n\n  constructor() public {\n    totalSupply = 1000000;\n  }\n}\n",
  "sourcePath": "/Users/aksharrawal/Desktop/Crypto/apc/contracts/APCToken.sol",
  "compiler": {
    "name": "solc",
    "version": "0.5.16+commit.9c3226ce.Emscripten.clang"
  },
  "schemaVersion": "3.3.3",
  "updatedAt": "2021-01-18T01:15:09.521Z",
  "networkType": "ethereum",
  "devdoc": {
    "methods": {}
  },
  "userdoc": {
    "methods": {}
  }
}